:020000040800F2
:100000008807002091010008BB1900083518000876
:10001000B919000805060008B71B00080000000019
:10002000000000000000000000000000BF190008F0
:100030006907000800000000BD190008C119000888
:10004000AB010008AB010008AB010008AB010008E0
:10005000AB010008AB010008AB010008AB010008D0
:10006000AB010008AB010008AB010008AB010008C0
:10007000AB010008AB010008AB010008AB010008B0
:10008000AB010008AB010008AB010008AB010008A0
:10009000AB010008AB010008AB010008AB01000890
:1000A000AB010008AB010008AB010008AB01000880
:1000B000AB010008AB010008AB010008AB01000870
:1000C000AB010008AB010008AB010008AB01000860
:1000D000AB010008AB010008AB010008AB01000850
:1000E000AB010008AB010008AB01000800F002F80A
:1000F00000F03FF80AA090E8000C82448344AAF183
:100100000107DA4501D100F034F8AFF2090EBAE880
:100110000F0013F0010F18BFFB1A43F0010318473B
:10012000041C0000241C0000103A24BF78C878C1C9
:10013000FAD8520724BF30C830C144BF04680C60ED
:10014000704700000023002400250026103A28BF35
:1001500078C1FBD8520728BF30C148BF0B60704739
:10016000752900F08380002070471FB51FBD10B5B2
:1001700010BD00F07EF91146FFF7F7FF01F02CFDEE
:1001800000F09CF903B4FFF7F2FF03BC00F0A4F900
:100190000948804709480047FEE7FEE7FEE7FEE71B
:1001A000FEE7FEE7FEE7FEE7FEE7FEE70448054957
:1001B000054A064B704700003D1A0008ED00000894
:1001C0008801002088070020880300208803002081
:1001D0000FB41CB50C0007AA009001D02044401EAB
:1001E000074B7B4469460190069800F022F9002CE9
:1001F00003D06946002000F02FF91CBC5DF814FB09
:100200007D0200002DE9F0410E46044600202062E8
:100210002046E168884730B3252805D0D4E901217C
:100220009047206A401CF2E7E16820460027884793
:10023000050018D0A5F14100192802D820354FF447
:1002400000673246294620462760FFF789FF40B104
:10025000012804D0F61D26F007060836D8E7361D1B
:10026000D6E72846DAE7206ABDE8F0812DE9F041BB
:100270000646002410687529314616A510D0AFF344
:100280000080002802DA404213A507E031688A079F
:1002900001D512A502E0490704D511A5012401E00A
:1002A000AFF3008000210A2206F1240709E0B0FB29
:1002B000F2FCB0FBF2F302FB1C003030785418461D
:1002C000491C0028F3D123462A463046BDE8F041B8
:1002D00000F051B8000000002D0000002B000000CD
:1002E0002000000010B5431C02E010F8011B71B1A2
:1002F0008107FAD14FF0013202C88C1A8C4314EAFC
:10030000C211F9D0C01A0A0603D0C01E10BDC01A0F
:1003100010BD0A0401D0801E10BD0902FCD0401E91
:1003200010BD4FF0000200B51346944696462039A2
:1003300022BFA0E80C50A0E80C50B1F12001BFF49E
:10034000F7AF090728BFA0E80C5048BF0CC05DF804
:1003500004EB890028BF40F8042B08BF704748BF52
:1003600020F8022B11F0804F18BF00F8012B7047C6
:100370007047704770472DE9F0470D469946924601
:10038000044600F124080168880604D5E06921F0DC
:100390001001216000E00120A84201DD471B00E0C0
:1003A0000027A1697A1902EB0900081AA0612078D8
:1003B000C00602D42046AFF30080002608E0D4E94E
:1003C00001211AF806009047206A401C761C206222
:1003D0004E45F4DB2078C0060AD52046AFF30080F6
:1003E00006E0D4E9012130209047206A401C2062B9
:1003F000381EA7F10107F4DC07E0D4E9012118F861
:1004000005009047206A401C2062281EA5F10105C6
:10041000F3DC2046AFF300802078000602D50220EE
:10042000BDE8F0870120FBE701694A1C02610878FA
:10043000704700B58FB0CDE9013100210591054924
:100440007944CDE9031011466846FFF7DBFE0FB093
:1004500000BD0000E5FFFFFF0A6802F8010B0A601B
:100460007047D1E900239A4202D2531C0B601070EE
:100470007047754600F02CF8AE46050069465346B5
:1004800020F00700854618B020B5FFF78FFEBDE8C5
:1004900020404FF000064FF000074FF000084FF0EB
:1004A000000B21F00701AC46ACE8C009ACE8C0097C
:1004B000ACE8C009ACE8C0098D46704710B50446E9
:1004C000AFF300802046BDE81040FFF75BBE0000A0
:1004D000004870472401002001491820ABBEFEE708
:1004E000260002007047000010B5074800F09EFB90
:1004F0006421054800F0FCFA08B1002010BDBDE8F9
:100500001040014800F01EBA7C00002010B50748DA
:1005100000F08CFB6421054800F0EAFA08B10020E5
:1005200010BDBDE81040014800F00CBAAC0000203E
:1005300070B5044600688168C943C90717D181684E
:1005400021F00101816000F0DDFC05460AE000BFFA
:1005500000F0D8FC401B022804D920688068C04302
:10056000C00706D020688068C043C007F0D00020D4
:1005700070BDA06A40F01000A062E06A40F0010087
:10058000E062012070BD0000F8B500260446009628
:1005900000688168C943C9072DD0816841F0010115
:1005A0008160164816490068B0FBF1F000E0401E7B
:1005B00000900028FBD100F0A5FC054616E000BF26
:1005C00000F0A0FC401B022810D920688068C043BE
:1005D000C0070BD0A06A40F01000A062E06A40F0B3
:1005E0000100E06284F824600120F8BD2068806882
:1005F000C043C007E4D10020F8BD00001400002073
:1006000040420F00FEE7000010B5044600F068FE0F
:100610000349B0FBF1F16143491EFDD210BD00005A
:1006200000093D0010B52820FFF7EEFF2021044807
:1006300000F05EFC08B1002010BD012010BD0000DC
:10064000000C01401FB52022084B012120B10020E1
:100650000092CDE9010104E00320CDE90021CDE9BC
:1006600002106946184600F053FB1FBD000C014004
:1006700010B50C4C2021204600F03AFC0028F9D09F
:100680002820FFF7C1FF2021204600F031FC002880
:1006900006D02021204600F02BFC0028F9D10120B3
:1006A00010BD0000000C014070B500242546600616
:1006B000040EFFF7DDFF08B144F001046D1CEDB23C
:1006C000082DF4D3204670BD7CB504460020009070
:1006D000019000F035F8FFF7A5FF60B3174D20211A
:1006E000284600F005FC0028F9D02021284600F01B
:1006F000FFFB0028F9D100254FEA0D06FFF7D4FFD4
:1007000070556D1CEDB2052DF8D39DF800509DF885
:1007100001309DF802209DF80310E8185618064491
:100720009DF80400864206D125706370A270E170C6
:10073000207100207CBD01207CBD0000000C014028
:1007400010B50020FFF77EFF00222021054800F0B1
:10075000D4FB142000F0CAFABDE810400120FFF7D6
:1007600071BF0000000C0140704772B6FEE7000048
:10077000F8B500250446009590F8240001280BD018
:10078000012084F824002046FFF7D2FE2046FFF720
:10079000FBFE060002D050E00220F8BDA06A20F463
:1007A000885040F00200A062022000F03BFC254986
:1007B0000968B1FBF0F0400000E0401E0090002806
:1007C000FBD12068816841F00801816000F09AFB4C
:1007D000074608E000F096FBC01B0A2803D92068F2
:1007E0008068000715D4206880680007F2D420686C
:1007F000816841F00401816000F084FB074612E04B
:1008000000F080FBC01B0A280DD9206880684007D3
:1008100009D5A06A20F0020040F01000A06284F820
:1008200024500120F8BD206880684007E8D4A06A01
:1008300020F0020040F00100A06284F8245030460D
:10084000F8BD000014000020F8B50024009490F8D2
:1008500024202546012A12D0012280F824204A684B
:100860001F23072A0DD20668776B521E02EB820205
:1008700093409F430B6893401F43776319E0022026
:10088000F8BD06680D2A0AD2376BD21F02EB82022E
:1008900093409F430B6893401F43376309E0F76A17
:1008A0000D3A02EB820293409F430B6893401F4333
:1008B000F7620A68072306680A2A0AD3F7680A3A21
:1008C00002EB420293409F438B6893401F43F760C3
:1008D00008E0376902EB420293409F438B689340E4
:1008E0001F4337610A68102A01D0112A20D1124B08
:1008F00002689A4217D193681B0219D4936843F493
:10090000000393600968102912D10C490C4A096848
:10091000B1FBF2F101EB8101490000E0491E0091B9
:100920000029FBD104E0816A41F0200181620124A9
:1009300080F824502046F8BD002401401400002017
:1009400040420F000068C06C704700002DE9F04184
:100950004FF0000704003D467ED0A06A002628B96B
:10096000E66284F82460204600F07EF82046FFF717
:10097000DFFDA16AC90600D420B1A06A40F01000D2
:10098000A06269E0A16A21F4885141F00201A162EC
:100990006268E169237B0A4347EA43010A43A1688D
:1009A0004FF48077B94209D0012907D05FF00001E8
:1009B00094F814C0BCF1010F02D00AE03946F7E701
:1009C000F3B1A36A43F02003A362E36A43F0010397
:1009D000E3622368D3F804C02CF4694C4CEA010CA0
:1009E000C3F804C021688B68DFF870C003EA0C0309
:1009F00013438B60A168B9420BD0012909D00CE0E8
:100A0000DFF85CC0A3690CEB43330B4343F4006194
:100A1000DFE7218A0D05A5F580152168CB6A23F44F
:100A200070032B43CB62216889680E4B19409142B9
:100A300008D1E662A16A21F0020141F00101A16240
:100A4000BDE8F081A06A20F0020040F01000A06232
:100A5000E06A40F00100E0620120F1E7FDF7E1FF0C
:100A600000E0FFFFFE0E1FFF10B586B000210091D1
:100A70000191029103911A4C03681A4903221A4802
:100A8000A34211D18B6943F400738B618B6903F42A
:100A9000007304938B6943F008038B61896901F04B
:100AA00008010491022113E0104CA34215D18B6977
:100AB00043F480638B618B6903F4806304938B69D7
:100AC00043F008038B61896901F008010491012159
:100AD000CDE90012694600F01BF906B010BD000018
:100AE0000024014000100240000C01400028014099
:100AF0002DE9F84300270D460446009700F002FA5E
:100B0000804620688168C90508D5A06A40F02000A9
:100B1000A06284F824700120BDE8F8834168C9050B
:100B200003D4C06A10F4700F2AD0022000F07AFAC1
:100B30003B490968B1FBF0F62068036939490B426B
:100B40004FEA61014FEAA1121FD1C3684FEA611C4D
:100B500013EA0C0F19D103690B4225D1C06810426A
:100B600022D1142023E0681C0AD02DB100F0CAF96C
:100B7000A0EB0800A84203D920680068800725D5AB
:100B8000206800688007EED52DE003690B4202D192
:100B9000C168114206D0026923490A4206D1C068E1
:100BA000084203D1542002E0292000E0FC20464303
:100BB000009816E0681C11D02DB100F0A3F9A0EB4D
:100BC0000800A8420AD90098B04207D2A06A40F0B3
:100BD0000400A06284F8247003209DE70098401C64
:100BE0000090B042E6D321686FF012000860A06A5E
:100BF00040F40070A06220688068C0F3424007287B
:100C00000CD1207B50B9A06A20F48070A062A06A49
:100C1000C00403D4A06A40F00100A06200207BE77A
:100C200014000020244992244992240070B50446FF
:100C300090F8240001280DD0012084F824002046DB
:100C4000FFF7A2FC02004FF0000005D084F824005A
:100C5000104670BD022070BDA16A40F20123994385
:100C600041F48071A1621F4D23681F49AB4218D126
:100C70000E6816F4702F14D0A66A46F48016A66289
:100C80000E68760505D5A66A26F4005646F4805609
:100C9000A662A66AF6040AD5E66A26F00606E662A9
:100CA00006E0A66A26F48016A6625E68E9E7E062BE
:100CB00084F824006FF00200186020688368C3F392
:100CC0004243072B05D1A84208D1096811F4702FBF
:100CD00004D0816841F480118160B9E7816841F4F2
:100CE000A001F9E7002801400424014070B5044642
:100CF00000F008F90546601C02D00448007804445E
:100D000000F000F9401BA042FAD370BD080000209B
:100D10002DE9F84FDFF8B8910024A9F1040B234620
:100D20000F2709F1040AABF1040EC9E00125A54023
:100D30002A40AA427DD1674ED1F804C0ACEB060828
:100D4000B44532D014DCBCF1030F3AD009DCBCF15D
:100D5000000F2AD0BCF1010F1CD0BCF1020F31D121
:100D60001DE0BCF1110F17D0BCF1120F2AD119E010
:100D7000B8F5881F19D006DCB8F5803F15D0B8F556
:100D8000801F1FD111E0B8F5001F0ED0B8F5041F69
:100D900018D10AE0CB6815E0CB681B1D12E0CB68C8
:100DA00008330FE0CB680C330CE08B682BB1012BC0
:100DB0004FF0080303D0456104E0042302E005611D
:100DC00000E00023FF2A01D8064601E000F10406F6
:100DD0004FEA840501D9A5F12005D6F8008007FA6D
:100DE00005FC28EA0C0803FA05F548EA0508C6F8E8
:100DF00000804D68ED0062D5374DAE6946F00106C2
:100E0000AE61AD6924F0030605F001050095334D90
:100E100006EB050CDCF80850A607360F07FA06F8B3
:100E200025EA0805DFF8B880404503D14FF00008F7
:100E300017E044E0DFF8AC80404502D14FF00108F4
:100E40000FE0DFF8A480404502D14FF0020808E02F
:100E5000DFF89880404502D14FF0030801E04FF0E1
:100E6000040808FA06F848EA0508CCF808804D6836
:100E7000D9F80060ED024D4601D5164300E09643D7
:100E80002E604D68DAF80060AD02554601D5164374
:100E900000E096432E604D68DBF80060AD035D46D0
:100EA00001D5164300E096432E604D68DEF80060E1
:100EB000ED03754601D5164300E096432E60641C91
:100EC0000D682A46E5407FF431AFBDE8F88F000099
:100ED0000804014000001110001002400000014011
:100EE00000080140000C01400010014000140140C6
:100EF0008068084000D0012070470AB10161704746
:100F00000904FBE7014880687047000008000020E2
:100F1000024881680278114481607047080000200F
:100F2000074810B5016841F010010160032000F08E
:100F300067F80F2000F006F800F024F8002010BD3C
:100F40000020024070B50D4D04464FF47A712878A8
:100F5000B1FBF0F00A490968B1FBF0F000F09CFB2E
:100F600048B9102C07D200222146501E00F028F864
:100F700000206C6070BD012070BD000008000020E2
:100F8000140000200C4808B5816941F0010181611D
:100F9000816901F001010091C16941F08051C16195
:100FA000C06900F0805000900448416821F0E06181
:100FB00041F00071416008BD001002400000014096
:100FC000F0B40E4B1B680C46C3F30223C3F10705B4
:100FD000042D00D90425191D072901D2002300E0A2
:100FE000DB1E012606FA05F1491E214099409E406C
:100FF000761E16403143F0BC00F0DEBD0CED00E083
:10100000064900F0070208684FF6FF03184040EA5F
:101010000220034A10430860704700000CED00E016
:101020000000FA0510B501460020234C012922D00A
:10103000022939D010291DD161682268D20119D541
:101040001E48C1F38342C903805C0AD561681B4A0C
:10105000C1F34041921E515C194AB2FBF1F1484381
:1010600001E0184948436168490203D44000032164
:10107000B0FBF1F010BD226AC2F30121012903D1B6
:10108000920701D5C80310BD022905D1626A9207F3
:1010900002D549F6404010BD0329FCD121688903DF
:1010A000F9D54FF2244010BD00F030F96168C1F36A
:1010B0008131491C4900DBE700100240FC1C00089C
:1010C00000127A0000093D002DE9F843054600783A
:1010D000354CC00754D0E0690026C00008D4E06950
:1010E00040F08050E061E069012600F080500090FF
:1010F0002E480168C90512D40168804641F4807108
:101100000160FFF7FFFE074605E000BFFFF7FAFEAC
:10111000C01B642823D8D8F80000C005F6D5206A83
:1011200010F4407021D0A98801F4407181421CD094
:10113000206A1F49012220F440700A6000220A60E0
:101140002062C00711D0FFF7DDFE074641F2883864
:1011500008E000BFFFF7D6FEC11B414502D90320BE
:10116000BDE8F883206A8007F4D5206A696820F416
:101170004070084320621EB1E06920F08050E061B9
:101180002878800705D56068A96820F440400843A6
:1011900060602878C00605D56068E96820F48000A2
:1011A000084360600020DBE7001002400070004050
:1011B000400442422DE9F0470F46050061D0434EFE
:1011C000306800F00700B84209D2306820F007000C
:1011D00038433060306800F00700B84251D12868C9
:1011E0003B4C810712D5400703D5606840F4E060AE
:1011F00060602878000703D5606840F46050606044
:101200006068A96820F0F000084360602878C00793
:1012100028D06868012810D02168022810D08907DA
:1012200000292EDA616821F0030101436160FFF7B4
:1012300069FE804641F288390DE021688903EFE7B5
:101240008901EDE7FFF75EFEA0EB0801494502D9F1
:101250000320BDE8F0876068696800F00C00B0EB1F
:10126000810FEFD1306800F00700B8420BD9306829
:1012700020F0070038433060306800F00700B842C3
:1012800001D00120E5E72878400705D56068E968C6
:1012900020F4E060084360602878000706D56068A5
:1012A000296920F4605040EAC100606000F03EF817
:1012B0006168084AC1F30311515CC84006490860DF
:1012C00006480068FFF73EFE0020C2E7002002400B
:1012D000001002400C1D0008140000200C0000202B
:1012E00001480068704700001400002004480549C8
:1012F00000684968044AC1F30221515CC840704744
:1013000014000020001002401C1D0008044805497C
:1013100000684968044AC1F3C221515CC840704763
:1013200014000020001002401C1D00080E4A5168E5
:101330000E4801F00C03042B11D0082B0FD10C48E0
:10134000C1F38343C903C05C0AD55168084AC1F39D
:101350004041921E515C054A5043B0FBF1F070478A
:1013600004494843704700000010024000127A0010
:10137000EA1C000800093D002DE9F84F040070D078
:101380002078C04DC00749D06868C0F381000128AB
:1013900007D06868C0F38100022809D16868C003DB
:1013A00006D52868800339D560680028E7D035E085
:1013B0006068B0F5803F0BD010B1B0F5A02F11D010
:1013C000286820F480302860286820F4802002E01B
:1013D000286840F480302860606890B1FFF792FD83
:1013E00006460AE0286840F480202860F0E700BF45
:1013F000FFF788FD801B642873D828688003F7D521
:101400000CE0FFF77FFD064605E000BFFFF77AFD21
:10141000801B6428F0D828688003F7D420789A4E7F
:1014200080074FF001094FF0000839D5686810F0C7
:101430000C0F07D06868C0F38100022809D16868E2
:10144000C00306D42868800714D52069012808D174
:1014500010E02069B0B1C6F80090FFF753FD0746D1
:1014600005E00AE1FFF74EFDC01B0228C4D828683A
:101470008007F7D52868616920F0F80040EAC100CC
:1014800028600DE0C6F80080FFF73CFD074604E049
:10149000FFF738FDC01B022823D828688007F7D43F
:1014A000207800072CD57948A169D9B1C0F80090FF
:1014B000FFF728FD074604E0FFF724FDC01B0228C4
:1014C0000FD8686A8007F7D571484FF4FA51006861
:1014D000B0FBF1F0009000BF0098411E0091FAD2DD
:1014E0000EE080E0C0F80080FFF70CFD074604E046
:1014F000FFF708FDC01B022875D8686A8007F7D47B
:101500002078400760D5E8690027C00008D4E86962
:1015100040F08050E861E869012700F080500090B9
:101520005C480168C90513D40168834641F48071A1
:101530000160FFF7E7FC824606E000BFFFF7E2FC30
:10154000A0EB0A0064284ED8DBF80000C005F5D5F2
:10155000E06801280AD008B1052813D0286A20F0D5
:1015600001002862286A20F0040002E0286A40F0A6
:1015700001002862E06841F2883B98B1FFF7C2FCA5
:1015800082460BE0286A40F004002862EEE700BFC4
:10159000FFF7B8FCA0EB0A0159455AD8286A800722
:1015A000F6D50CE0FFF7AEFC824605E0FFF7AAFC9B
:1015B000A0EB0A0159454CD8286A8007F6D41FB120
:1015C000E86920F08050E861E06988B36968C1F398
:1015D0008101022944D00228C6F8608004D0FFF7B8
:1015E00091FC044638E034E0FFF78CFC074604E049
:1015F000FFF788FCC01B02282BD828688001F7D48D
:10160000206AB0F5803F05D16868A16820F40030F9
:1016100008436860D4E908010843696821F474113B
:1016200008436860C6F86090FFF76CFC044606E06B
:1016300025E000BFFFF766FC001B022809D82868D8
:101640008001F7D51BE000BFFFF75CFC001B022800
:1016500002D90320BDE8F88F28688001F4D40EE099
:101660000128F7D06868226A00F48031914204D1E1
:10167000616A00F47010884201D00120EAE700207E
:10168000E8E70000001002400000424280044242AD
:10169000140000200070004010B5401EB0F1807FA3
:1016A00001D3012010BD4FF0E02460610F216017CD
:1016B00000F082FA0020A06107202061002010BD08
:1016C00070B5040004D094F84100002510B106E084
:1016D000012070BD84F84050204600F023F82420FB
:1016E00084F841002068C16821F40051C16020469F
:1016F00000F0CCF92068016921F490410161206873
:10170000416921F02A0141612068C16841F400511A
:10171000C1606564202084F8410084F8420065635C
:10172000002070BD30B585B000240094019402946F
:10173000039400681449884223D11448C16941F4D4
:101740000031C161C16901F400310491816941F046
:101750000401816180690E4D00F0040004900420B2
:101760000090022001900320039069462846FFF76D
:10177000CFFA0820CDE90004694628460294FFF715
:10178000C7FA05B030BD0000004400400010024020
:10179000000801402DE9F843044690F841009846BE
:1017A00016460D46202802D00220BDE8F88385B1F8
:1017B0007EB100206064212084F84100FFF7A2FB85
:1017C000A6848146E684A0682027B0F5805F02D019
:1017D00003E00120E9E7206910B12E4600250EE064
:1017E00000260CE08021204600F0ACF9A8B9C6B173
:1017F00016F8010B21684860E08C401EE084E08C04
:101800004B464FF00002CDF800800028EAD14FF09F
:101810004001204600F096F940B184F84170032061
:10182000C3E735F8020BC0F30800E3E784F8417022
:101830000020BAE7FEE700003EB5002411480094FE
:10184000019402940E4984600160047304750125BB
:1018500005614FF460214460C161FFF777F808B17A
:10186000FEF783FF0920CDE900056946029405488B
:10187000FEF7EAFF002801D0FEF777FF3EBD00002B
:10188000002401407C0000203EB500241148009453
:10189000019402940E49846001600473047501256B
:1018A00005614FF460214460C161FFF74FF808B152
:1018B000FEF75BFF0820CDE9000569460294054864
:1018C000FEF7C2FF002801D0FEF74FFF3EBD00002B
:1018D00000280140AC000020F0B585B00020009049
:1018E0000190029003902348816941F020018161B9
:1018F000816901F020010491816941F00401816155
:10190000816901F004010491816941F0080181615C
:101910008069194E00F00800049001224FF4014143
:101920003046FFF7EAFA154F012220213846FFF72B
:10193000E4FAB0150124CDE9000402200325CDE925
:10194000020569463046FFF7E3F9E003CDE90004FC
:1019500069463046CDE90245FFF7DAF92020CDE9A6
:10196000000469463846CDE90245FFF7D1F905B0D4
:10197000F0BD00000010024000080140000C0140D2
:101980000C4810B50A4901604FF4E1314160002173
:1019900081600C22C160C0E904128161C161FFF75E
:1019A0008FFE002803D0BDE81040FEF7DEBE10BD5C
:1019B00000440040DC000020FEE7FEE7704770476F
:1019C000FFF7A6BA30B593B028216846FEF7A9FC08
:1019D00014210AA8FEF7A5FC002501200F951095FB
:1019E0001195010412958DE8230004904FF4E01046
:1019F000CDE90810022407946846FFF7BDFC08B142
:101A000072B6FEE70AA90F2081E831004FF480602A
:101A1000CDE90D0502210AA8FFF7CCFB08B172B68B
:101A2000FEE74FF4004011900F940FA8FFF74CFB16
:101A3000002801D072B6FEE713B030BD70470168D0
:101A40000C3151E8002F22F4907241E80023002B62
:101A5000F5D10168143151E8002F22F0010241E86C
:101A60000023002BF5D1016B012909D101680C314C
:101A700051E8002F22F0100241E80023002BF5D19D
:101A8000202180F8421000210163704770B50446A0
:101A900000680169E26821F4405111430161216944
:101AA000A0680843616908432168CA6841F20C6371
:101AB0009A430243CA6020684169A26921F44071D7
:101AC000114341611E492068884202D1FFF71EFC84
:101AD00001E0FFF70BFC00EBC00101EB00126068B6
:101AE00064218000B2FBF0F3B3FBF1F36FF0180652
:101AF0007343B2FBF0F5B2FBF0F605EB830532233E
:101B000003EB0515B5FBF1F5B6FBF1F605F0F005B5
:101B100005EB0615B2FBF0F6B2FBF0F0B0FBF1F00E
:101B20006FF01802504306EB800003EB0010B0FB8F
:101B3000F1F0216800F00F002844886070BD0000BB
:101B4000003801402DE9F843984617460D460446F3
:101B5000089E24E0701C22D0FFF7D4F9A0EB080007
:101B6000B0421AD8CEB12068C168490717D5802D78
:101B700015D0402D13D00168C94309070FD401685F
:101B80000025406800902046FFF759FF0820606458
:101B900084F840500120BDE8F8830320FBE720686B
:101BA000006835EA000004D00020B842D2D00020FE
:101BB000F1E70120F9E7FEE70907090E002804DB39
:101BC00000F1E02080F80014704700F00F0000F1F1
:101BD000E02080F8141D70470EB5FFF7A1F9FFF75C
:101BE000F1FEFFF779FEFFF727FEFFF74DFEFFF747
:101BF000C7FE2148FEF7BCFD2048FEF7B9FD20A234
:101C000064212548FEF7E4FA2348FEF76BFB82B215
:101C10004FF4FA752B4620492048FFF7BBFDAE0074
:101C2000FEF762FC0746FEF771FC04461C48FEF70F
:101C30004BFDA0B1CDE900403B461AA264211648F5
:101C4000FEF7C6FA1448FEF74DFB82B22B46124946
:101C50001248FFF79FFD3046FFF748F8E0E71048CD
:101C60003B4618A2017880780094CDE901016421F7
:101C70000948FEF7ADFAE5E77C000020AC00002043
:101C800053797374656D20496E697469616C697A02
:101C900065640D0A0000000018000020DC00002030
:101CA00000000020414443313A25752C4144433221
:101CB0003A25752C4448543131204572723A2575C5
:101CC0000D0A0000414443313A25752C414443320A
:101CD0003A25752C54656D703A2575432C48756D01
:101CE0003A257525250D0A000102020304050607A1
:101CF00008090A0B0C0D0E0F101001020203040557
:101D0000060708090A0B0C0D0E0F1010000000004A
:101D1000000000000102030406070809000000009B
:101D200001020304441D0008000000201800000008
:101D3000280100085C1D0008180000207007000042
:101D40004401000800000000000000000100000045
:0C1D5000100000000000000000127A00EB
:04000005080000ED02
:00000001FF
