:020000040800F2
:10000000C0070020A5010008072700088325000875
:1000100005270008750C0008E92A00080000000008
:10002000000000000000000000000000DD270008C4
:10003000D90D00080000000009270008DF2700088C
:10004000BF010008BF010008BF010008BF01000890
:10005000BF010008BF010008BF010008BF01000880
:10006000BF010008BF010008BF010008BF01000870
:10007000BF010008BF010008BF010008BF01000860
:10008000BF010008BF010008BF010008BF01000850
:10009000BF010008BF010008BF010008BF01000840
:1000A000BF010008BF010008BF010008BF01000830
:1000B000BF010008BF010008BF010008BF01000820
:1000C000BF010008BF010008BF010008BF01000810
:1000D000BF010008BF010008DD2A0008BF010008B9
:1000E000BF010008BF010008BF01000800F002F8CE
:1000F00000F048F80AA090E8000C82448344AAF17A
:100100000107DA4501D100F03DF8AFF2090EBAE877
:100110000F0013F0010F18BFFB1A43F0010318473B
:10012000202C0000402C0000103A24BF78C878C171
:10013000FAD8520724BF30C830C144BF04680C60ED
:10014000704700000023002400250026103A28BF35
:1001500078C1FBD8520728BF30C148BF0B60704739
:10016000752900F0A180002070471FB500F0E8FC61
:1001700004000020002102F0AFFD401C60601FBDA4
:1001800010B510BD00F0A0FC1146FFF7EEFF02F025
:10019000BDFC00F0C7FC03B4FFF7F2FF03BC00F0A6
:1001A000D3FC00000948804709480047FEE7FEE706
:1001B000FEE7FEE7FEE7FEE7FEE7FEE7FEE7FEE717
:1001C00004480549054A064B704700005B280008B3
:1001D000ED000008C0010020C0070020C00300207F
:1001E000C0030020B2F120030AD5C2F1200320FA97
:1001F00002F001FA03F321FA02F140EA030070472A
:1002000021FA03F04FF00001704700000FB41CB555
:100210000C0007AA009001D02044401E074B7B44ED
:1002200069460190069800F026FA002C03D0694632
:10023000002000F033FA1CBC5DF814FB85040000BC
:100240002DE9F0410E460446002020622046E16878
:10025000884730B3252805D0D4E901219047206A8A
:10026000401CF2E7E168204600278847050018D0C7
:10027000A5F14100192802D820354FF40067324615
:10028000294620462760FFF76BFF40B1012804D0C4
:10029000F61D26F007060836D8E7361DD6E72846AD
:1002A000DAE7206ABDE8F0812DE9F0410646002436
:1002B00010687529314616A510D0AFF300800028CC
:1002C00002DA404213A507E031688A0701D512A57A
:1002D00002E0490704D511A5012401E0AFF3008035
:1002E00000210A2206F1240709E0B0FBF2FCB0FB72
:1002F000F2F302FB1C00303078541846491C0028E9
:10030000F3D123462A463046BDE8F04100F055B906
:10031000000000002D0000002B0000002000000065
:100320000FB400B58DB010A9099000910B904FF05B
:10033000FF300A9000200C9006487844069006484A
:1003400078446A4607900F9909A800F0C9F90DB0E2
:100350005DF814FBC3030000DB0300002DE9FF5F21
:100360001D464FF0FF3B91464FF000085F46D5E930
:100370000146A96901987F1C8847296A82468847F7
:100380000028F6D1BAF1FF3F0CD0002E24F4C0644F
:1003900019DD600614D5BAF12B0F09D0BAF12D0F73
:1003A0000ED103E0584604B0BDE8F09F44F48064E9
:1003B000A96901987F1C8847761E8246002E02DDBF
:1003C000BAF1300F03D0B9F1000F26D032E0A9699D
:1003D000761E01987F1C44F400748847002E8246E4
:1003E00005DDBAF1780F06D0BAF1580F03D0B9F194
:1003F000000F10D01EE0B9F1000F02D0B9F1100FBC
:1004000018D1A969761E01987F1C24F400748847CE
:100410008246102002E0082000E00A20814609E020
:10042000A96908FB0908761E01987F1C44F4007432
:1004300088478246002E05DD4946504600F03BF9CC
:100440000028EDDAE96901988847A00502D46FF029
:100450000100A8E7E00725D1600613D5600502D5A5
:10046000C8F1000000E0404629680A1D2A600968BA
:10047000220501D5087015E0220701D5088011E09A
:1004800008600FE02868011D29600068210502D579
:1004900080F8008006E0210702D5A0F8008001E086
:1004A000C0F8008038467EE710B5431C02E010F823
:1004B000011B71B18107FAD14FF0013202C88C1AC9
:1004C0008C4314EAC211F9D0C01A0A0603D0C01E28
:1004D00010BDC01A10BD0A0401D0801E10BD090253
:1004E000FCD0401E10BD4FF0000200B513469446EC
:1004F0009646203922BFA0E80C50A0E80C50B1F17C
:100500002001BFF4F7AF090728BFA0E80C5048BF8F
:100510000CC05DF804EB890028BF40F8042B08BF2D
:10052000704748BF20F8022B11F0804F18BF00F829
:10053000012B70474FF0013C50F8042B51F8043B5D
:100540009A4221D1A2EB0C03934313EACC1317D1A7
:1005500050F8042B51F8043B9A4215D1A2EB0C033E
:10056000934313EACC130BD150F8042B51F8043BFE
:100570009A4209D1A2EB0C03934313EACC13DBD0CC
:100580004FF00000704700BFD01A01BAB1FA81F1F4
:1005900001F0180122FA01F0CB40C1F12001DBB2D9
:1005A000C0B2C01A2CFA01F3D11A914311EAC31157
:1005B000E6D170477047704770472DE9F0470D4608
:1005C00099469246044600F124080168880604D53D
:1005D000E06921F01001216000E00120A84201DD66
:1005E000471B00E00027A1697A1902EB0900081AED
:1005F000A0612078C00602D42046AFF30080002618
:1006000008E0D4E901211AF806009047206A401C4E
:10061000761C20624E45F4DB2078C0060AD52046C1
:10062000AFF3008006E0D4E9012130209047206A32
:10063000401C2062381EA7F10107F4DC07E0D4E972
:10064000012118F805009047206A401C2062281EEE
:10065000A5F10105F3DC2046AFF300802078000609
:1006600002D50220BDE8F0870120FBE701694A1CA2
:1006700002610878704700B58FB0CDE901310021E3
:10068000059105497944CDE9031011466846FFF705
:10069000D7FD0FB000BD0000E5FFFFFF0A6802F8BC
:1006A000010B0A607047D1E900239A4202D2531C21
:1006B0000B60107070473A2800D2303820F02002CA
:1006C000412A01D3A2F13700884201D34FF0FF3015
:1006D00070470000026811441378016018467047A3
:1006E000D16005497944516104497944116200217E
:1006F0001161114600F02EB8EDFFFFFF530000001E
:10070000426842B1016811F8013B23B1521EC0E9B1
:100710000012184670470121C160881E7047426868
:100720005AB1C368016843B983688B4205D0491E3A
:10073000521CC0E90012002070474FF0FF30704794
:1007400010B5044600F0E6F90068005D00F0010015
:1007500010BD00002DE9F34F4FF0000A0C4656463D
:100760008DB001200C9001F10C000B9062690B9888
:1007700001219047051E2DD0252D2CD0216A8847B8
:10078000C0B162690B9801219047216A884700280F
:10079000F7D16269411E0B98904700E0761CA16971
:1007A0000D988847216A88470028F7D1E1690D989C
:1007B0008847DBE7A1690D988847A842074601D121
:1007C000761CD3E7E1690D9888477F1C02D1BAF106
:1007D000000F6FD06BE162690B9800273D463946E8
:1007E00090472A2804D162690B980121904701257E
:1007F000DFF8D08262690B9801219047A0F13001A7
:100800000A290AD24745E5DC07EB870100EB4107DF
:10081000303FDFD445F01005ECE7E90601D46FF076
:1008200000476C280AD04C2814D0682815D06A28B4
:100830000DD074281CD07A281AD01DE062690B985C
:10084000012190476C2802D045F0040514E045F0E2
:1008500002050DE045F020050AE062690B980121D0
:100860009047682802D045F0080505E045F400658A
:1008700062690B9801219047C4E9015765283DD072
:1008800019DC58287AD00CDC452837D004DC252820
:1008900026D041289ED131E046282FD0472899D133
:1008A0002CE05B2877D0612828D063287CD064288E
:1008B00023D15AE0F6E06F2848D008DC66281DD026
:1008C00067281BD0692821D06E2816D127E0702810
:1008D00045D0732868D0752847D078280DD14DE0D1
:1008E000A1690D988847252805463FF469AFE1695D
:1008F0000D9888476D1C3FF46AAFD8E00D992346E8
:100900006A466FF00100AFF30080C5E045F040009B
:1009100023464FF000026060A80736D43EE0E807A7
:100920007FF447AF2068011D21600068290501D5CB
:1009300006701BE7290701D5068017E7A90703D52D
:10094000F117C0E9006111E706600FE745F04000CC
:1009500023464FF008026060A80716D41EE040F658
:100960000E0125EA0100606016E045F040002346D4
:100970004FF00A026060A80707D40FE045F040007E
:100980006060A80708D5234610220D996FF001007A
:10099000AFF3008080E007E0102223460D996FF04E
:1009A0000100FFF7DBFC77E04FF0000963284F46BA
:1009B000C8464B46CB4602D05B2806D038E0E80656
:1009C00001D40120A060012732E06269D4F80CB0A4
:1009D0000B98012190475E2807D14FF00109494645
:1009E0006269D4F80CB00B989047216939B900219D
:1009F0000A4603AB43F82120491C0829FADBD8B387
:100A0000216949B308F1010862690B9801219047F7
:100A10005D28F4D1B9F1000F09D0002003A951F8E5
:100A20002020D24341F82020401C0828F7DB03ABEC
:100A30002069002820794FEA40701ED05B4622468C
:100A4000CDF80080CDE901970D9900286FF00100E5
:100A500020DAAFF300801FE0C11703AA00EBD161D9
:100A60004B1121F01F0102EB8302411A1368012090
:100A7000884003431360C7E719E00D992246002818
:100A80006FF00100009702DAAFF3008004E0AFF3EB
:100A9000008001E0AFF3008000280ADA401C06D194
:100AA0000C9820B14FF0FF300FB0BDE8F08F5046EA
:100AB000FAE7E90701D10AF1010A064400200C9087
:100AC00054E60000CCCCCC0C754600F035F8AE46B0
:100AD00005006946534620F00700854618B020B54A
:100AE000FFF76EFBBDE820404FF000064FF0000717
:100AF0004FF000084FF0000B21F00701AC46ACE8C6
:100B0000C009ACE8C009ACE8C009ACE8C0098D4632
:100B10007047000010B500F013F8001D10BD00BFB5
:100B2000B921000010B50446AFF300802046BDE8AF
:100B30001040FFF730BB0000004870476001002004
:100B4000004870478001002001491820ABBEFEE735
:100B5000260002007047000010B5074800F04EFC68
:100B60006421054800F0ACFB08B1002010BDBDE8D1
:100B70001040014800F0CEBA9400002010B507489C
:100B800000F03CFC6421054800F09AFB08B100200D
:100B900010BDBDE81040014800F0BCBAC400002000
:100BA00070B5044600688168C943C90717D18168D8
:100BB00021F00101816000F0AFFE05460AE000BFB0
:100BC00000F0AAFE401B022804D920688068C043B8
:100BD000C00706D020688068C043C007F0D000205E
:100BE00070BDA06A40F01000A062E06A40F0010011
:100BF000E062012070BD0000F8B5002604460096B2
:100C000000688168C943C9072DD0816841F001019E
:100C10008160164816490068B0FBF1F000E0401E04
:100C200000900028FBD100F077FE054616E000BFDB
:100C300000F072FE401B022810D920688068C04373
:100C4000C0070BD0A06A40F01000A062E06A40F03C
:100C50000100E06284F824600120F8BD206880680B
:100C6000C043C007E4D10020F8BD000018000020F8
:100C700040420F00FEE7000010B5044601F048F8BE
:100C80000349B0FBF1F16143491EFDD210BD0000E4
:100C900000093D0010B52820FFF7EEFF2021044891
:100CA00000F030FE08B1002010BD012010BD000092
:100CB000000C01401FB52022084B012120B100206B
:100CC0000092CDE9010104E00320CDE90021CDE946
:100CD00002106946184600F025FD1FBD000C0140BA
:100CE00010B50C4C2021204600F00CFE0028F9D055
:100CF0002820FFF7C1FF2021204600F003FE002836
:100D000006D02021204600F0FDFD0028F9D1012069
:100D100010BD0000000C014070B50024254660069F
:100D2000040EFFF7DDFF08B144F001046D1CEDB2C5
:100D3000082DF4D3204670BD7CB5044600200090F9
:100D4000019000F035F8FFF7A5FF60B3174D2021A3
:100D5000284600F0D7FD0028F9D02021284600F0D1
:100D6000D1FD0028F9D100254FEA0D06FFF7D4FF89
:100D700070556D1CEDB2052DF8D39DF800509DF80F
:100D800001309DF802209DF80310E818561806441B
:100D90009DF80400864206D125706370A270E17050
:100DA000207100207CBD01207CBD0000000C0140B2
:100DB00010B50020FFF77EFF00222021054800F03B
:100DC000A6FD142000F0EAFBBDE810400120FFF76B
:100DD00071BF0000000C0140704772B6FEE70000D2
:100DE00006490020C8610648016941F0040101611B
:100DF000016941F04001016170470000400100209D
:100E000000200240064A0021D16106490A6942F0E9
:100E100002020A614861086940F0400008617047B9
:100E20004001002000200240044B0022DA61044A05
:100E3000136943F0010313610180704740010020F2
:100E40000020024014480022C168CB06134904D593
:100E5000CA6942F00202CA611022C3685B0705D565
:100E6000CB6943F00103CB6142F00402C369DB07A5
:100E700007D0CB6943F00403CB61C16921F00101C4
:100E8000C161A2F58071013901D0C2607047C169AA
:100E900021F00101C16170470020024040010020A3
:100EA00070B5054600F038FD0646114C09E0681C97
:100EB00007D025B100F030FD801BA84201D90320E6
:100EC00070BDE068C007F2D1E068800601D520203F
:100ED000E060E068C00605D4E069C00702D1E068C0
:100EE000400703D5FFF7AEFF012070BD002070BDA5
:100EF0000020024030B585B00C46054600F0FEFBF0
:100F00000E480021029000910120CDE9030104A9BF
:100F1000684600F055FB049820B100F0A5FB0120C5
:100F200005B030BD224600232946012000F0A6FB73
:100F3000044600F099FB2046F2E70000007C000820
:100F4000F8B500250446009590F8240001280BD040
:100F5000012084F824002046FFF722FE2046FFF7F8
:100F60004BFE060002D050E00220F8BDA06A20F43B
:100F7000885040F00200A062022000F06BFD25497D
:100F80000968B1FBF0F0400000E0401E009000282E
:100F9000FBD12068816841F00801816000F0BCFC51
:100FA000074608E000F0B8FCC01B0A2803D92068F7
:100FB0008068000715D4206880680007F2D4206894
:100FC000816841F00401816000F0A6FC074612E050
:100FD00000F0A2FCC01B0A280DD9206880684007D9
:100FE00009D5A06A20F0020040F01000A06284F849
:100FF00024500120F8BD206880684007E8D4A06A2A
:1010000020F0020040F00100A06284F82450304635
:10101000F8BD000018000020F8B50024009490F8F6
:1010200024202546012A12D0012280F824204A6873
:101030001F23072A0DD20668776B521E02EB82022D
:1010400093409F430B6893401F43776319E002204E
:10105000F8BD06680D2A0AD2376BD21F02EB820256
:1010600093409F430B6893401F43376309E0F76A3F
:101070000D3A02EB820293409F430B6893401F435B
:10108000F7620A68072306680A2A0AD3F7680A3A49
:1010900002EB420293409F438B6893401F43F760EB
:1010A00008E0376902EB420293409F438B6893400C
:1010B0001F4337610A68102A01D0112A20D1124B30
:1010C00002689A4217D193681B0219D4936843F4BB
:1010D000000393600968102912D10C490C4A096871
:1010E000B1FBF2F101EB8101490000E0491E0091E2
:1010F0000029FBD104E0816A41F0200181620124D2
:1011000080F824502046F8BD00240140180000203B
:1011100040420F000068C06C704700002DE9F041AC
:101120004FF0000704003D467ED0A06A002628B993
:10113000E66284F82460204600F07EF82046FFF73F
:101140002FFDA16AC90600D420B1A06A40F01000AA
:10115000A06269E0A16A21F4885141F00201A16214
:101160006268E169237B0A4347EA43010A43A168B5
:101170004FF48077B94209D0012907D05FF0000110
:1011800094F814C0BCF1010F02D00AE03946F7E729
:10119000F3B1A36A43F02003A362E36A43F00103BF
:1011A000E3622368D3F804C02CF4694C4CEA010CC8
:1011B000C3F804C021688B68DFF870C003EA0C0331
:1011C00013438B60A168B9420BD0012909D00CE010
:1011D000DFF85CC0A3690CEB43330B4343F40061BD
:1011E000DFE7218A0D05A5F580152168CB6A23F478
:1011F00070032B43CB62216889680E4B19409142E2
:1012000008D1E662A16A21F0020141F00101A16268
:10121000BDE8F081A06A20F0020040F01000A0625A
:10122000E06A40F00100E0620120F1E7FDF7E1FF34
:1012300000E0FFFFFE0E1FFF10B586B000210091F9
:101240000191029103911A4C03681A4903221A482A
:10125000A34211D18B6943F400738B618B6903F452
:10126000007304938B6943F008038B61896901F073
:1012700008010491022113E0104CA34215D18B699F
:1012800043F480638B618B6903F4806304938B69FF
:1012900043F008038B61896901F008010491012181
:1012A000CDE90012694600F03DFA06B010BD00001D
:1012B0000024014000100240000C014000280140C1
:1012C0002DE9F84300270D460446009700F024FB63
:1012D000804620688168C90508D5A06A40F02000D2
:1012E000A06284F824700120BDE8F8834168C90534
:1012F00003D4C06A10F4700F2AD0022000F0AAFBB9
:101300003B490968B1FBF0F62068036939490B4293
:101310004FEA61014FEAA1121FD1C3684FEA611C75
:1013200013EA0C0F19D103690B4225D1C068104292
:1013300022D1142023E0681C0AD02DB100F0ECFA71
:10134000A0EB0800A84203D920680068800725D5D3
:10135000206800688007EED52DE003690B4202D1BA
:10136000C168114206D0026923490A4206D1C06809
:10137000084203D1542002E0292000E0FC2046432B
:10138000009816E0681C11D02DB100F0C5FAA0EB52
:101390000800A8420AD90098B04207D2A06A40F0DB
:1013A0000400A06284F8247003209DE70098401C8C
:1013B0000090B042E6D321686FF012000860A06A86
:1013C00040F40070A06220688068C0F342400728A3
:1013D0000CD1207B50B9A06A20F48070A062A06A72
:1013E000C00403D4A06A40F00100A06200207BE7A3
:1013F00018000020244992244992240070B5044624
:1014000090F8240001280DD0012084F82400204603
:10141000FFF7F2FB02004FF0000005D084F8240033
:10142000104670BD022070BDA16A40F201239943AD
:1014300041F48071A1621F4D23681F49AB4218D14E
:101440000E6816F4702F14D0A66A46F48016A662B1
:101450000E68760505D5A66A26F4005646F4805631
:10146000A662A66AF6040AD5E66A26F00606E662D1
:1014700006E0A66A26F48016A6625E68E9E7E062E6
:1014800084F824006FF00200186020688368C3F3BA
:101490004243072B05D1A84208D1096811F4702FE7
:1014A00004D0816841F480118160B9E7816841F41A
:1014B000A001F9E7002801400424014010B590F88C
:1014C00021100022022905D00421816380F8202008
:1014D000012010BD01680B6823F00E030B6001684A
:1014E0000B6823F001030B6090F84030C46B0121BE
:1014F00001FA03F3636080F8211080F82020104681
:1015000010BD000010B590F821100024022903D06E
:101510000421816301243DE001680A6822F00E0283
:101520000A6001680A6822F001020A601A4A01682A
:10153000914201D1012121E0174A1432914201D197
:1015400010211BE0144A2832914201D1891515E07F
:10155000114A3C32914201D189140FE00E4A5032B7
:10156000914202D14FF4803108E00B4A643291423B
:1015700002D14FF4801101E04FF08071064A083A21
:101580005160012180F82110002180F82010416B6A
:1015900001B18847204610BD0800024070B50446DE
:1015A00000F0BAF90546601C02D0044800780444F3
:1015B00000F0B2F9401BA042FAD370BD0C0000202D
:1015C0002DE9F047054626480F460126017E0129F0
:1015D0000FD00121814601762868DFF888804CF21F
:1015E0005034022808D0A2462046FFF759FCA8B183
:1015F00031E00220BDE8F0872046FFF751FC08BB30
:101600000120FFF7EDFB2046FFF74AFCD8F8101049
:10161000064621F00401C8F810101CE04FF0FF301E
:101620003860AC6811E02046FFF7ECFB5046FFF74E
:1016300037FCD8F81010060021F00201C8F810108D
:1016400001D03C6007E004F58064D5E9020100EBBD
:101650008120A042E7D8002189F818103046C9E758
:1016600040010020002002400348016941F0800150
:101670000161002070470000002002402DE9F05F6A
:1016800007461C4888460024017E15461E4601294F
:1016900009D00121814601764CF2503A5046FFF7BD
:1016A000FFFB18B122E00220BDE8F09F012F02D01D
:1016B000022F00D00427D346DFF83CA022012846A1
:1016C0003146FEF78FFD81B208EB4400FFF7ACFB1B
:1016D0005846FFF7E5FBDAF8102022F00102CAF8BD
:1016E000102018B9641CE4B2BC42E7D3002289F888
:1016F0001820D9E7400100200020024006490020C0
:101700000A69120607D5054A4A60054A4A6009690E
:10171000090600D5012070470020024023016745DB
:10172000AB89EFCD2DE9F84FDFF8B8910024A9F18E
:10173000040B23460F2709F1040AABF1040EC9E09C
:101740000125A5402A40AA427DD1674ED1F804C0A8
:10175000ACEB0608B44532D014DCBCF1030F3AD030
:1017600009DCBCF1000F2AD0BCF1010F1CD0BCF188
:10177000020F31D11DE0BCF1110F17D0BCF1120FD7
:101780002AD119E0B8F5881F19D006DCB8F5803FDA
:1017900015D0B8F5801F1FD111E0B8F5001F0ED08D
:1017A000B8F5041F18D10AE0CB6815E0CB681B1D03
:1017B00012E0CB6808330FE0CB680C330CE08B6889
:1017C0002BB1012B4FF0080303D0456104E0042343
:1017D00002E0056100E00023FF2A01D8064601E08F
:1017E00000F104064FEA840501D9A5F12005D6F8D9
:1017F000008007FA05FC28EA0C0803FA05F548EA18
:101800000508C6F800804D68ED0062D5374DAE6919
:1018100046F00106AE61AD6924F0030605F001054E
:101820000095334D06EB050CDCF80850A607360F83
:1018300007FA06F825EA0805DFF8B880404503D125
:101840004FF0000817E044E0DFF8AC80404502D1DB
:101850004FF001080FE0DFF8A480404502D14FF0BF
:10186000020808E0DFF89880404502D14FF00308F5
:1018700001E04FF0040808FA06F848EA0508CCF839
:1018800008804D68D9F80060ED024D4601D5164339
:1018900000E096432E604D68DAF80060AD025546D0
:1018A00001D5164300E096432E604D68DBF80060DA
:1018B000AD035D4601D5164300E096432E604D68AA
:1018C000DEF80060ED03754601D5164300E096434F
:1018D0002E60641C0D682A46E5407FF431AFBDE8F8
:1018E000F88F0000080401400000111000100240B1
:1018F0000000014000080140000C014000100140C0
:10190000001401408068084000D0012070470AB1EF
:10191000016170470904FBE70148806870470000D7
:101920000C000020024881680278114481607047F1
:101930000C000020074810B5016841F0100101605B
:10194000032000F075F80F2000F006F800F024F8EE
:10195000002010BD0020024070B50D4D04464FF42C
:101960007A712878B1FBF0F00A490968B1FBF0F010
:1019700000F0AAFB48B9102C07D200222146501EC5
:1019800000F036F800206C6070BD012070BD0000D2
:101990000C000020180000200C4808B5816941F0B7
:1019A00001018161816901F001010091C16941F08A
:1019B0008051C161C06900F08050009004484168C6
:1019C00021F0E06141F00071416008BD001002406B
:1019D00000000140002809DB00F01F0201219140B6
:1019E0004009800000F1E020C0F8001170470000BD
:1019F000F0B40E4B1B680C46C3F30223C3F107057A
:101A0000042D00D90425191D072901D2002300E067
:101A1000DB1E012606FA05F1491E214099409E4031
:101A2000761E16403143F0BC01F05FB80CED00E0CB
:101A3000064900F0070208684FF6FF03184040EA25
:101A40000220034A10430860704700000CED00E0DC
:101A50000000FA0510B501460020234C012922D0D0
:101A6000022939D010291DD161682268D20119D507
:101A70001E48C1F38342C903805C0AD561681B4AD2
:101A8000C1F34041921E515C194AB2FBF1F1484347
:101A900001E0184948436168490203D4400003212A
:101AA000B0FBF1F010BD226AC2F30121012903D17C
:101AB000920701D5C80310BD022905D1626A9207B9
:101AC00002D549F6404010BD0329FCD121688903A5
:101AD000F9D54FF2244010BD00F030F96168C1F330
:101AE0008131491C4900DBE700100240182D000835
:101AF00000127A0000093D002DE9F8430546007800
:101B0000354CC00754D0E0690026C00008D4E06915
:101B100040F08050E061E069012600F080500090C4
:101B20002E480168C90512D40168804641F48071CD
:101B30000160FFF7F1FE074605E000BFFFF7ECFE8E
:101B4000C01B642823D8D8F80000C005F6D5206A49
:101B500010F4407021D0A98801F4407181421CD05A
:101B6000206A1F49012220F440700A6000220A60A6
:101B70002062C00711D0FFF7CFFE074641F2883838
:101B800008E000BFFFF7C8FEC11B414502D9032092
:101B9000BDE8F883206A8007F4D5206A696820F4DC
:101BA0004070084320621EB1E06920F08050E0617F
:101BB0002878800705D56068A96820F4404008436C
:101BC00060602878C00605D56068E96820F4800068
:101BD000084360600020DBE7001002400070004016
:101BE000400442422DE9F0470F46050061D0434EC4
:101BF000306800F00700B84209D2306820F00700D2
:101C000038433060306800F00700B84251D128688E
:101C10003B4C810712D5400703D5606840F4E06073
:101C200060602878000703D5606840F46050606009
:101C30006068A96820F0F000084360602878C00759
:101C400028D06868012810D02168022810D08907A0
:101C500000292EDA616821F0030101436160FFF77A
:101C60005BFE804641F288390DE021688903EFE789
:101C70008901EDE7FFF750FEA0EB0801494502D9C5
:101C80000320BDE8F0876068696800F00C00B0EBE5
:101C9000810FEFD1306800F00700B8420BD93068EF
:101CA00020F0070038433060306800F00700B84289
:101CB00001D00120E5E72878400705D56068E9688C
:101CC00020F4E060084360602878000706D560686B
:101CD000296920F4605040EAC100606000F03EF8DD
:101CE0006168084AC1F30311515CC84006490860A5
:101CF00006480068FFF730FE0020C2E700200240DF
:101D000000100240282D00081800002010000020BC
:101D10000148006870470000180000200448054989
:101D200000684968044AC1F30221515CC840704709
:101D30001800002000100240382D00080448054912
:101D400000684968044AC1F3C221515CC840704729
:101D50001800002000100240382D00080E4A51687B
:101D60000E4801F00C03042B11D0082B0FD10C48A6
:101D7000C1F38343C903C05C0AD55168084AC1F363
:101D80004041921E515C054A5043B0FBF1F0704750
:101D900004494843704700000010024000127A00D6
:101DA000062D000800093D002DE9F84F040070D011
:101DB0002078C04DC00749D06868C0F38100012871
:101DC00007D06868C0F38100022809D16868C003A1
:101DD00006D52868800339D560680028E7D035E04B
:101DE0006068B0F5803F0BD010B1B0F5A02F11D0D6
:101DF000286820F480302860286820F4802002E0E1
:101E0000286840F480302860606890B1FFF784FD56
:101E100006460AE0286840F480202860F0E700BF0A
:101E2000FFF77AFD801B642873D828688003F7D5F4
:101E30000CE0FFF771FD064605E000BFFFF76CFD03
:101E4000801B6428F0D828688003F7D420789A4E45
:101E500080074FF001094FF0000839D5686810F08D
:101E60000C0F07D06868C0F38100022809D16868A8
:101E7000C00306D42868800714D52069012808D13A
:101E800010E02069B0B1C6F80090FFF745FD0746A5
:101E900005E00AE1FFF740FDC01B0228C4D828680E
:101EA0008007F7D52868616920F0F80040EAC10092
:101EB00028600DE0C6F80080FFF72EFD074604E01D
:101EC000FFF72AFDC01B022823D828688007F7D413
:101ED000207800072CD57948A169D9B1C0F80090C5
:101EE000FFF71AFD074604E0FFF716FDC01B0228A6
:101EF0000FD8686A8007F7D571484FF4FA51006827
:101F0000B0FBF1F0009000BF0098411E0091FAD2A2
:101F10000EE080E0C0F80080FFF7FEFC074604E01A
:101F2000FFF7FAFCC01B022875D8686A8007F7D44F
:101F30002078400760D5E8690027C00008D4E86928
:101F400040F08050E861E869012700F0805000907F
:101F50005C480168C90513D40168834641F4807167
:101F60000160FFF7D9FC824606E000BFFFF7D4FC12
:101F7000A0EB0A0064284ED8DBF80000C005F5D5B8
:101F8000E06801280AD008B1052813D0286A20F09B
:101F900001002862286A20F0040002E0286A40F06C
:101FA00001002862E06841F2883B98B1FFF7B4FC79
:101FB00082460BE0286A40F004002862EEE700BF8A
:101FC000FFF7AAFCA0EB0A0159455AD8286A8007F6
:101FD000F6D50CE0FFF7A0FC824605E0FFF79CFC7D
:101FE000A0EB0A0159454CD8286A8007F6D41FB1E6
:101FF000E86920F08050E861E06988B36968C1F35E
:102000008101022944D00228C6F8608004D0FFF77D
:1020100083FC044638E034E0FFF77EFC074604E02A
:10202000FFF77AFCC01B02282BD828688001F7D460
:10203000206AB0F5803F05D16868A16820F40030BF
:1020400008436860D4E908010843696821F4741101
:1020500008436860C6F86090FFF75EFC044606E03F
:1020600025E000BFFFF758FC001B022809D82868AC
:102070008001F7D51BE000BFFFF74EFC001B0228D4
:1020800002D90320BDE8F88F28688001F4D40EE05F
:102090000128F7D06868226A00F48031914204D1A7
:1020A000616A00F47010884201D00120EAE7002044
:1020B000E8E7000000100240000042428004424273
:1020C000180000200070004010B5401EB0F1807F65
:1020D00001D3012010BD4FF0E02460610F21601793
:1020E00000F003FD0020A06107202061002010BD4A
:1020F00070477047F8B5016804460868CA684B69BC
:1021000010F00F0F4FF0000559D003F0010602F454
:102110009077374365D0C10705D0D10503D5616CF1
:1021200041F001016164410705D5D90703D0616C15
:1021300041F002016164810705D5D90703D0616CC4
:1021400041F004016164010707D502F02001314329
:1021500003D0616C41F008016164616C00293AD0E0
:10216000800604D5900602D5204600F0A6FB206824
:102170004069616CC0F38010090700D460B3204649
:1021800000F074FB20684069400621D520681430B7
:1021900050E8001F21F0400140E80012002AF5D16C
:1021A000E06BA8B16D494163E06BFFF7ABF9002824
:1021B00011D0E06B416B01B0BDE8F04008478306E9
:1021C0000FD593060DD52046BDE8F84000F075BB4D
:1021D0002046FFF78EFFF8BD2046FFF78AFF6564B3
:1021E000F8BD266B2023012E7CD1C6067AD5D606F3
:1021F00078D508684868009048694FF002064006A4
:1022000040D5E16B086840680004000CE8D0A28D5E
:102210008242E5D9E085886920282DD020680C30DD
:1022200050E8001F21F4807140E80012002AF5D127
:102230002068143050E8001F21F0010140E800122E
:10224000002AF5D12068143050E8001F21F0400129
:1022500040E80012002AF5D184F842302563206856
:102260000C3050E8001F21F0100140E80012002A55
:10227000F5D1E06BFFF722F96663A08DE18D401A7E
:1022800081B22AE0A08DE18D401A81B2E08D002854
:10229000A6D00029A4D022680C3252E8000F20F406
:1022A000907042E80007002FF5D12068143050E804
:1022B000002F22F0010240E80027002FF5D184F81A
:1022C0004230256320680C3050E8002F22F01002C5
:1022D00040E80023002BF5D166632046FFF708FF96
:1022E000F8BDFFE705062BD5150629D594F8410062
:1022F0002128F5D1A068B0F5805F01D12069B0B187
:10230000206A411C2162216800784860E08C401EF0
:102310000004000CE084E3D12068C16821F0800152
:10232000C1602068C16841F04001C160D8E7206AFF
:102330000088C0F308004860206A801C2062E5E73E
:102340004006CDD55006CBD5CA68204622F04002C3
:10235000CA6084F8413000F013F9C1E75D28000835
:1023600070B5040004D094F84100002510B106E0D7
:10237000012070BD84F84050204600F023F824204E
:1023800084F841002068C16821F40051C1602046F2
:1023900000F0F4FA2068016921F49041016120689D
:1023A000416921F02A0141612068C16841F400516E
:1023B000C1606564202084F8410084F842006563B0
:1023C000002070BD30B585B00024009401940294C3
:1023D00003940068184988422BD11848C16941F418
:1023E0000031C161C16901F400310491816941F09A
:1023F000040181618069124D00F004000490042002
:102400000090022001900320039069462846FFF7C0
:1024100089F90820CDE90004694628460294FFF7AF
:1024200081F9002211462620FFF7E2FA2620FFF765
:10243000D1FA05B030BD0000004400400010024059
:102440000008014090F84230202B01D00220704754
:1024500021B11AB10023036300F0ECBA01207047E8
:1024600070B500681449884225D1154C134E207868
:10247000315C0D290DD00A290BD0132801D2401C44
:10248000207020783118BDE8704001220D48FFF718
:10249000D9BF002568B135540BA10848FEF74AF8AA
:1024A00038B10CA10548FEF745F810B1034800F01B
:1024B0002DF92570E5E770BD004400408000002044
:1024C00000000020F4000020434F4E4E45435420AE
:1024D0004F4B0000444953434F4E4E454354000078
:1024E0002DE9F843044690F84100984616460D46FB
:1024F000202802D00220BDE8F88385B17EB10020FB
:102500006064212084F84100FFF706FAA684814622
:10251000E684A0682027B0F5805F02D003E00120A8
:10252000E9E7206910B12E4600250EE000260CE0F8
:102530008021204600F099FAA8B9C6B116F8010B1F
:1025400021684860E08C401EE084E08C4B464FF0F0
:102550000002CDF800800028EAD14FF0400120466B
:1025600000F083FA40B184F841700320C3E735F8E6
:10257000020BC0F30800E3E784F841700020BAE7DB
:102580007047FEE73EB50024114800940194029480
:102590000E498460016004730475012505614FF4E0
:1025A00060214460C161FEF7B9FD08B1FEF715FC7A
:1025B0000920CDE90005694602940548FEF72CFD87
:1025C000002801D0FEF709FC3EBD000000240140B8
:1025D000940000203EB50024114800940194029418
:1025E0000E498460016004730475012505614FF490
:1025F00060214460C161FEF791FD08B1FEF7EDFB7B
:102600000820CDE90005694602940548FEF704FD5F
:10261000002801D0FEF7E1FB3EBD0000002801408C
:10262000C4000020F0B585B0002000900190029019
:1026300003902348816941F020018161816901F0A3
:1026400020010491816941F004018161816901F0F7
:1026500004010491816941F0080181618069194E8A
:1026600000F00800049001224FF401413046FFF7CA
:102670004EF9154F012220213846FFF748F9B015D1
:102680000124CDE9000402200325CDE902056946B5
:102690003046FFF747F8E003CDE9000469463046CD
:1026A000CDE90245FFF73EF82020CDE90004694658
:1026B0003846CDE90245FFF735F805B0F0BD00001A
:1026C0000010024000080140000C01400C4810B509
:1026D0000A4901604FF4E1314160002181600C2220
:1026E000C160C0E904128161C161FFF739FE0028B1
:1026F00003D0BDE81040FEF770BB10BD00440040A1
:10270000F4000020FEE7FEE770470000F8B506463B
:102710000020ADF800006A4618A13046FDF700FE23
:10272000194C4FF4FA7501281DD06A4617A130469E
:10273000FDF7F6FD012815D1BDF80010A18016485F
:10274000FEF7D8FBBDF8003014A264211A48FDF74B
:102750005DFD1948FDF7A8FE82B22B4616491748C1
:10276000FFF7BEFEF8BD0C48BDF800106180801E6A
:10277000FEF7C0FBBDF8003011A2E6E7414443314B
:102780003A256875000000000000002041444332F3
:102790003A25687500000000027C0008536F696CE0
:1027A000207468726573686F6C642073657420743C
:1027B0006F2025750D0A00001C000020F400002089
:1027C0004C69676874207468726573686F6C642004
:1027D00073657420746F2025750D0A007047FFF72C
:1027E000A1B830B593B028216846FDF77CFE1421CE
:1027F0000AA8FDF778FE002501200F951095119588
:10280000010412958DE8230004904FF4E010CDE907
:102810000810022407946846FFF7C6FA08B172B69A
:10282000FEE70AA90F2081E831004FF48060CDE96E
:102830000D0502210AA8FFF7D5F908B172B6FEE727
:102840004FF4004011900F940FA8FFF755F900289E
:1028500001D072B6FEE713B030BD704710B5406AC4
:102860000021C185C184FFF744FC10BD01680C3113
:1028700051E8002F22F4907241E80023002BF5D19B
:102880000168143151E8002F22F0010241E80023D1
:10289000002BF5D1016B012909D101680C3151E8F8
:1028A000002F22F0100241E80023002BF5D1202157
:1028B00080F8421000210163704708B590F842107B
:1028C000222901D0022008BD82684FF480539A4229
:1028D00001D1016921B1816A9A421BD04AB10AE053
:1028E0000268816A5268C2F308020A80816A891C00
:1028F00008E0026972B10268526802F07F020A7051
:10290000816A491C8162C18D491E0904090CC18577
:1029100003D01BE002685268F1E70168CA6822F040
:102920002002CA600168CA6822F48072CA60016825
:102930004A6922F001024A61202180F842100021F8
:102940004163026B012A03D0FFF78AFD002008BD16
:10295000016301680C3151E8002F22F0100241E8B8
:102960000023002BF5D101680A68D20602D50A6857
:1029700049680091818DFFF7BBFBE7E770B504461E
:1029800000680169E26821F4405111430161216945
:10299000A0680843616908432168CA6841F20C6372
:1029A0009A430243CA6020684169A26921F44071D8
:1029B000114341611E492068884202D1FFF7BEF9E8
:1029C00001E0FFF7ABF900EBC00101EB001260681A
:1029D00064218000B2FBF0F3B3FBF1F36FF0180653
:1029E0007343B2FBF0F5B2FBF0F605EB830532233F
:1029F00003EB0515B5FBF1F5B6FBF1F605F0F005B7
:102A000005EB0615B2FBF0F6B2FBF0F0B0FBF1F00F
:102A10006FF01802504306EB800003EB0010B0FB90
:102A2000F1F0216800F00F002844886070BD0000BC
:102A30000038014081628285C285002141642221E3
:102A400080F84210016921B10168CA6842F48072BD
:102A5000CA6001684A6942F001024A610068C168BF
:102A600041F02001C160002070472DE9F8439846ED
:102A700017460D460446089E24E0701C22D0FEF73F
:102A80004BFFA0EB0800B0421AD8CEB12068C16855
:102A9000490717D5802D15D0402D13D00168C943A3
:102AA00009070FD401680025406800902046FFF711
:102AB000DDFE0820606484F840500120BDE8F88302
:102AC0000320FBE72068006835EA000004D00020FE
:102AD000B842D2D00020F1E70120F9E70148FFF722
:102AE00009BB0000F4000020FEE70907090E0028DA
:102AF00004DB00F1E02080F80014704700F00F00C4
:102B000000F1E02080F8141D704700000EB5FEF7BC
:102B100011FFFFF766FEFFF785FDFFF733FDFFF7B7
:102B200059FDFFF7D3FD444D4FF4004700223946CD
:102B30002846FEF7ECFEAE15002231462846FEF789
:102B4000E6FE3E48FEF7FCF93D48FEF7F9F93D4840
:102B50004FF6FF723C4C0188801C9142008800D0E7
:102B60006180904200D0A080012238493848FFF7A8
:102B700069FCA08800903548638836A264216438D7
:102B8000FDF744FB31486438FDF78EFC2F4982B2D3
:102B90004FF4FA78434664392D48FFF7A1FCBB4651
:102BA0004746AA46B14641F2883800BFFDF7D4FF38
:102BB0000646FDF7E3FF05466088864201D90122FB
:102BC00000E0002259465046FEF7A1FEA08885424B
:102BD00001D9012200E0002249465046FEF797FE47
:102BE0001948801DFEF7A8F8B8B1CDE90050174884
:102BF000334628A264216438FDF708FB1348643883
:102C0000FDF752FC114982B23B4664391048FFF788
:102C100067FC4046FEF7C2FCC8E70B483346801D00
:102C200024A2017880780095CDE90101074864214C
:102C30006438FDF7EBFAE1E700080140940000205A
:102C4000C4000020007C000800000020800000205C
:102C5000F400002053797374656D20496E697469BE
:102C6000616C697A65640D0A4C69676874207468E0
:102C7000726573686F6C643A2025750D0A536F692D
:102C80006C207468726573686F6C643A2025750DEA
:102C90000A000000414443313A25752C4144433237
:102CA0003A25752C4448543131204572723A2575C5
:102CB0000D0A0000414443313A25752C414443320A
:102CC0003A25752C54656D703A2575432C48756D01
:102CD0003A257525250D0A0010B500290AD0087877
:102CE000002807D005487844FDF724FC002801D0CF
:102CF000002010BD0248784410BD00007A0000009A
:102D000072000000010202030405060708090A0B0D
:102D10000C0D0E0F1010010202030405060708092E
:102D20000A0B0C0D0E0F1010000000000000000038
:102D30000102030406070809000000000102030461
:102D4000702E0008000000201C0000002801000870
:102D50008C2E00081C000020A4070000440100087D
:102D60001001000043000000F8FFFFFF004040405A
:102D7000404040404040414141414140404040404E
:102D800040404040404040404040404040050202FA
:102D900002020202020202020202020202202020B9
:102DA0002020202020202002020202020202909015
:102DB0009090909010101010101010101010101013
:102DC0001010101010101010020202020202888867
:102DD0008888888808080808080808080808080873
:102DE000080808080808080802020202400000005B
:102DF00000000000000000000000000000000000D3
:102E000000000000000000000000000000000000C2
:102E100000000000000000000000000000000000B2
:102E200000000000000000000000000000000000A2
:102E30000000000000000000000000000000000092
:102E40000000000000000000000000000000000082
:102E50000000000000000000000000000000000072
:102E60000000000000000000000000000000000062
:102E70000000B80BB80B00000000000001000000CB
:0C2E8000100000000000000000127A00AA
:04000005080000ED02
:00000001FF
